{"abi":[{"type":"constructor","inputs":[{"name":"_collateral","type":"address","internalType":"address"},{"name":"_borrow","type":"address","internalType":"address"}],"stateMutability":"nonpayable"},{"type":"function","name":"INTEREST_RATE","inputs":[],"outputs":[{"name":"","type":"uint256","internalType":"uint256"}],"stateMutability":"view"},{"type":"function","name":"LIQUIDATION_THRESHOLD","inputs":[],"outputs":[{"name":"","type":"uint256","internalType":"uint256"}],"stateMutability":"view"},{"type":"function","name":"LTV","inputs":[],"outputs":[{"name":"","type":"uint256","internalType":"uint256"}],"stateMutability":"view"},{"type":"function","name":"SECONDS_PER_YEAR","inputs":[],"outputs":[{"name":"","type":"uint256","internalType":"uint256"}],"stateMutability":"view"},{"type":"function","name":"borrow","inputs":[{"name":"amount","type":"uint256","internalType":"uint256"}],"outputs":[],"stateMutability":"nonpayable"},{"type":"function","name":"borrowToken","inputs":[],"outputs":[{"name":"","type":"address","internalType":"contract IERC20"}],"stateMutability":"view"},{"type":"function","name":"collateralPrice","inputs":[],"outputs":[{"name":"","type":"uint256","internalType":"uint256"}],"stateMutability":"view"},{"type":"function","name":"collateralToken","inputs":[],"outputs":[{"name":"","type":"address","internalType":"contract IERC20"}],"stateMutability":"view"},{"type":"function","name":"deposit","inputs":[{"name":"amount","type":"uint256","internalType":"uint256"}],"outputs":[],"stateMutability":"nonpayable"},{"type":"function","name":"getBorrowed","inputs":[{"name":"user","type":"address","internalType":"address"}],"outputs":[{"name":"","type":"uint256","internalType":"uint256"}],"stateMutability":"view"},{"type":"function","name":"getCurrentBorrow","inputs":[{"name":"user","type":"address","internalType":"address"}],"outputs":[{"name":"","type":"uint256","internalType":"uint256"}],"stateMutability":"view"},{"type":"function","name":"getDeposited","inputs":[{"name":"user","type":"address","internalType":"address"}],"outputs":[{"name":"","type":"uint256","internalType":"uint256"}],"stateMutability":"view"},{"type":"function","name":"getHealthFactor","inputs":[{"name":"user","type":"address","internalType":"address"}],"outputs":[{"name":"","type":"uint256","internalType":"uint256"}],"stateMutability":"view"},{"type":"function","name":"interestRatePerSecond","inputs":[],"outputs":[{"name":"","type":"uint256","internalType":"uint256"}],"stateMutability":"view"},{"type":"function","name":"liquidate","inputs":[{"name":"user","type":"address","internalType":"address"}],"outputs":[],"stateMutability":"nonpayable"},{"type":"function","name":"positions","inputs":[{"name":"","type":"address","internalType":"address"}],"outputs":[{"name":"deposited","type":"uint256","internalType":"uint256"},{"name":"borrowed","type":"uint256","internalType":"uint256"},{"name":"lastUpdate","type":"uint256","internalType":"uint256"}],"stateMutability":"view"},{"type":"function","name":"repay","inputs":[{"name":"amount","type":"uint256","internalType":"uint256"}],"outputs":[],"stateMutability":"nonpayable"},{"type":"function","name":"setCollateralPrice","inputs":[{"name":"price","type":"uint256","internalType":"uint256"}],"outputs":[],"stateMutability":"nonpayable"},{"type":"function","name":"withdraw","inputs":[{"name":"amount","type":"uint256","internalType":"uint256"}],"outputs":[],"stateMutability":"nonpayable"},{"type":"event","name":"Borrowed","inputs":[{"name":"user","type":"address","indexed":true,"internalType":"address"},{"name":"amount","type":"uint256","indexed":false,"internalType":"uint256"}],"anonymous":false},{"type":"event","name":"Deposited","inputs":[{"name":"user","type":"address","indexed":true,"internalType":"address"},{"name":"amount","type":"uint256","indexed":false,"internalType":"uint256"}],"anonymous":false},{"type":"event","name":"Liquidated","inputs":[{"name":"user","type":"address","indexed":true,"internalType":"address"},{"name":"debtPaid","type":"uint256","indexed":false,"internalType":"uint256"},{"name":"collateralSeized","type":"uint256","indexed":false,"internalType":"uint256"}],"anonymous":false},{"type":"event","name":"Repaid","inputs":[{"name":"user","type":"address","indexed":true,"internalType":"address"},{"name":"amount","type":"uint256","indexed":false,"internalType":"uint256"}],"anonymous":false},{"type":"event","name":"Withdrawn","inputs":[{"name":"user","type":"address","indexed":true,"internalType":"address"},{"name":"amount","type":"uint256","indexed":false,"internalType":"uint256"}],"anonymous":false},{"type":"error","name":"SafeERC20FailedOperation","inputs":[{"name":"token","type":"address","internalType":"address"}]}],"bytecode":{"object":"0x60806040526301e133806064670de0b6b3a7640000600a610020919061012c565b61002a919061019a565b610034919061019a565b600255670de0b6b3a764000060035534801561004e575f5ffd5b5060405161182938038061182983398181016040528101906100709190610228565b815f5f6101000a81548173ffffffffffffffffffffffffffffffffffffffff021916908373ffffffffffffffffffffffffffffffffffffffff1602179055508060015f6101000a81548173ffffffffffffffffffffffffffffffffffffffff021916908373ffffffffffffffffffffffffffffffffffffffff1602179055505050610266565b5f819050919050565b7f4e487b71000000000000000000000000000000000000000000000000000000005f52601160045260245ffd5b5f610136826100f6565b9150610141836100f6565b925082820261014f816100f6565b91508282048414831517610166576101656100ff565b5b5092915050565b7f4e487b71000000000000000000000000000000000000000000000000000000005f52601260045260245ffd5b5f6101a4826100f6565b91506101af836100f6565b9250826101bf576101be61016d565b5b828204905092915050565b5f5ffd5b5f73ffffffffffffffffffffffffffffffffffffffff82169050919050565b5f6101f7826101ce565b9050919050565b610207816101ed565b8114610211575f5ffd5b50565b5f81519050610222816101fe565b92915050565b5f5f6040838503121561023e5761023d6101ca565b5b5f61024b85828601610214565b925050602061025c85828601610214565b9150509250929050565b6115b6806102735f395ff3fe608060405234801561000f575f5ffd5b506004361061011f575f3560e01c806362965d8e116100ab578063b2016bd41161006f578063b2016bd414610309578063b6b55f2514610327578063c5ebeaec14610343578063e6a69ab81461035f578063fe6bcd7c1461037d5761011f565b806362965d8e1461026357806381e95d461461028157806390a8ae9b146102b15780639cc820da146102cf578063a1865cb5146102ed5761011f565b8063466bb312116100f2578063466bb3121461019557806355f57510146101c55780635891de72146101f75780635b72a33a146102155780636011163e146102335761011f565b80632e1a7d4d146101235780632f8655681461013f578063371fd8e61461015b578063456dc17a14610177575b5f5ffd5b61013d60048036038101906101389190610fff565b6103ad565b005b61015960048036038101906101549190611084565b61053e565b005b61017560048036038101906101709190610fff565b6106e6565b005b61017f610841565b60405161018c919061110a565b60405180910390f35b6101af60048036038101906101aa9190611084565b610866565b6040516101bc9190611132565b60405180910390f35b6101df60048036038101906101da9190611084565b6108ae565b6040516101ee9392919061114b565b60405180910390f35b6101ff6108d4565b60405161020c9190611132565b60405180910390f35b61021d6108da565b60405161022a9190611132565b60405180910390f35b61024d60048036038101906102489190611084565b6108df565b60405161025a9190611132565b60405180910390f35b61026b610928565b6040516102789190611132565b60405180910390f35b61029b60048036038101906102969190611084565b61092d565b6040516102a89190611132565b60405180910390f35b6102b961093e565b6040516102c69190611132565b60405180910390f35b6102d7610943565b6040516102e49190611132565b60405180910390f35b61030760048036038101906103029190610fff565b610949565b005b610311610953565b60405161031e919061110a565b60405180910390f35b610341600480360381019061033c9190610fff565b610977565b005b61035d60048036038101906103589190610fff565b610af1565b005b610367610cd2565b6040516103749190611132565b60405180910390f35b61039760048036038101906103929190611084565b610cda565b6040516103a49190611132565b60405180910390f35b5f60045f3373ffffffffffffffffffffffffffffffffffffffff1673ffffffffffffffffffffffffffffffffffffffff1681526020019081526020015f2090505f6103f733610dac565b90505f600354604b670de0b6b3a764000060648561041591906111ad565b61041f91906111ad565b610429919061121b565b610433919061121b565b835f0154610441919061124b565b905080841115610486576040517f08c379a000000000000000000000000000000000000000000000000000000000815260040161047d906112d8565b60405180910390fd5b83835f015f828254610498919061124b565b925050819055506104ea33855f5f9054906101000a900473ffffffffffffffffffffffffffffffffffffffff1673ffffffffffffffffffffffffffffffffffffffff16610e4d9092919063ffffffff16565b3373ffffffffffffffffffffffffffffffffffffffff167f7084f5476618d8e60b11ef0d7d3f06914655adb8793e28ff7f018d4c76d505d5856040516105309190611132565b60405180910390a250505050565b5f60045f8373ffffffffffffffffffffffffffffffffffffffff1673ffffffffffffffffffffffffffffffffffffffff1681526020019081526020015f2090505f61058883610cda565b9050670de0b6b3a764000081106105d4576040517f08c379a00000000000000000000000000000000000000000000000000000000081526004016105cb90611340565b60405180910390fd5b5f6105de84610dac565b905061062e33308360015f9054906101000a900473ffffffffffffffffffffffffffffffffffffffff1673ffffffffffffffffffffffffffffffffffffffff16610ea0909392919063ffffffff16565b61067c33845f01545f5f9054906101000a900473ffffffffffffffffffffffffffffffffffffffff1673ffffffffffffffffffffffffffffffffffffffff16610e4d9092919063ffffffff16565b8373ffffffffffffffffffffffffffffffffffffffff167f09c223cfcd8c93e245f558f5f8de755fc0930fd9bc257441155ef5d54a170e0f82855f01546040516106c792919061135e565b60405180910390a25f835f01819055505f836001018190555050505050565b5f60045f3373ffffffffffffffffffffffffffffffffffffffff1673ffffffffffffffffffffffffffffffffffffffff1681526020019081526020015f2090505f61073033610dac565b905080831115610775576040517f08c379a000000000000000000000000000000000000000000000000000000000815260040161076c906113cf565b60405180910390fd5b6107c333308560015f9054906101000a900473ffffffffffffffffffffffffffffffffffffffff1673ffffffffffffffffffffffffffffffffffffffff16610ea0909392919063ffffffff16565b8281116107d0575f6107dd565b82816107dc919061124b565b5b82600101819055504282600201819055503373ffffffffffffffffffffffffffffffffffffffff167f0516911bcc3a0a7412a44601057c0a0a1ec628bde049a84284bc428866534488846040516108349190611132565b60405180910390a2505050565b60015f9054906101000a900473ffffffffffffffffffffffffffffffffffffffff1681565b5f60045f8373ffffffffffffffffffffffffffffffffffffffff1673ffffffffffffffffffffffffffffffffffffffff1681526020019081526020015f205f01549050919050565b6004602052805f5260405f205f91509050805f0154908060010154908060020154905083565b60035481565b600a81565b5f60045f8373ffffffffffffffffffffffffffffffffffffffff1673ffffffffffffffffffffffffffffffffffffffff1681526020019081526020015f20600101549050919050565b604b81565b5f61093782610dac565b9050919050565b605081565b60025481565b8060038190555050565b5f5f9054906101000a900473ffffffffffffffffffffffffffffffffffffffff1681565b5f81116109b9576040517f08c379a00000000000000000000000000000000000000000000000000000000081526004016109b090611437565b60405180910390fd5b610a063330835f5f9054906101000a900473ffffffffffffffffffffffffffffffffffffffff1673ffffffffffffffffffffffffffffffffffffffff16610ea0909392919063ffffffff16565b8060045f3373ffffffffffffffffffffffffffffffffffffffff1673ffffffffffffffffffffffffffffffffffffffff1681526020019081526020015f205f015f828254610a549190611455565b925050819055504260045f3373ffffffffffffffffffffffffffffffffffffffff1673ffffffffffffffffffffffffffffffffffffffff1681526020019081526020015f20600201819055503373ffffffffffffffffffffffffffffffffffffffff167f2da466a7b24304f47e87fa2e1e5a81b9831ce54fec19055ce277ca2f39ba42c482604051610ae69190611132565b60405180910390a250565b5f60045f3373ffffffffffffffffffffffffffffffffffffffff1673ffffffffffffffffffffffffffffffffffffffff1681526020019081526020015f2090505f815f015411610b76576040517f08c379a0000000000000000000000000000000000000000000000000000000008152600401610b6d906114d2565b60405180910390fd5b5f670de0b6b3a76400006064604b600354855f0154610b9591906111ad565b610b9f91906111ad565b610ba9919061121b565b610bb3919061121b565b90505f610bbf33610dac565b9050818482610bce9190611455565b1115610c0f576040517f08c379a0000000000000000000000000000000000000000000000000000000008152600401610c069061153a565b60405180910390fd5b610c5b338560015f9054906101000a900473ffffffffffffffffffffffffffffffffffffffff1673ffffffffffffffffffffffffffffffffffffffff16610e4d9092919063ffffffff16565b83836001015f828254610c6e9190611455565b925050819055504283600201819055503373ffffffffffffffffffffffffffffffffffffffff167fac59582e5396aca512fa873a2047e7f4c80f8f55d4a06cb34a78a0187f62719f85604051610cc49190611132565b60405180910390a250505050565b6301e1338081565b5f5f60045f8473ffffffffffffffffffffffffffffffffffffffff1673ffffffffffffffffffffffffffffffffffffffff1681526020019081526020015f2090505f816001015403610d4f577fffffffffffffffffffffffffffffffffffffffffffffffffffffffffffffffff915050610da7565b5f610d5984610dac565b90505f670de0b6b3a7640000600354845f0154610d7691906111ad565b610d80919061121b565b905081670de0b6b3a764000082610d9791906111ad565b610da1919061121b565b93505050505b919050565b5f5f60045f8473ffffffffffffffffffffffffffffffffffffffff1673ffffffffffffffffffffffffffffffffffffffff1681526020019081526020015f2090505f816002015442610dfe919061124b565b90505f670de0b6b3a7640000826002548560010154610e1d91906111ad565b610e2791906111ad565b610e31919061121b565b9050808360010154610e439190611455565b9350505050919050565b610e5a8383836001610ef5565b610e9b57826040517f5274afe7000000000000000000000000000000000000000000000000000000008152600401610e929190611567565b60405180910390fd5b505050565b610eae848484846001610f57565b610eef57836040517f5274afe7000000000000000000000000000000000000000000000000000000008152600401610ee69190611567565b60405180910390fd5b50505050565b5f5f63a9059cbb60e01b9050604051815f525f1960601c86166004528460245260205f60445f5f8b5af1925060015f51148316610f49578383151615610f3d573d5f823e3d81fd5b5f873b113d1516831692505b806040525050949350505050565b5f5f6323b872dd60e01b9050604051815f525f1960601c87166004525f1960601c86166024528460445260205f60645f5f8c5af1925060015f51148316610fb5578383151615610fa9573d5f823e3d81fd5b5f883b113d1516831692505b806040525f606052505095945050505050565b5f5ffd5b5f819050919050565b610fde81610fcc565b8114610fe8575f5ffd5b50565b5f81359050610ff981610fd5565b92915050565b5f6020828403121561101457611013610fc8565b5b5f61102184828501610feb565b91505092915050565b5f73ffffffffffffffffffffffffffffffffffffffff82169050919050565b5f6110538261102a565b9050919050565b61106381611049565b811461106d575f5ffd5b50565b5f8135905061107e8161105a565b92915050565b5f6020828403121561109957611098610fc8565b5b5f6110a684828501611070565b91505092915050565b5f819050919050565b5f6110d26110cd6110c88461102a565b6110af565b61102a565b9050919050565b5f6110e3826110b8565b9050919050565b5f6110f4826110d9565b9050919050565b611104816110ea565b82525050565b5f60208201905061111d5f8301846110fb565b92915050565b61112c81610fcc565b82525050565b5f6020820190506111455f830184611123565b92915050565b5f60608201905061115e5f830186611123565b61116b6020830185611123565b6111786040830184611123565b949350505050565b7f4e487b71000000000000000000000000000000000000000000000000000000005f52601160045260245ffd5b5f6111b782610fcc565b91506111c283610fcc565b92508282026111d081610fcc565b915082820484148315176111e7576111e6611180565b5b5092915050565b7f4e487b71000000000000000000000000000000000000000000000000000000005f52601260045260245ffd5b5f61122582610fcc565b915061123083610fcc565b9250826112405761123f6111ee565b5b828204905092915050565b5f61125582610fcc565b915061126083610fcc565b925082820390508181111561127857611277611180565b5b92915050565b5f82825260208201905092915050565b7f576f756c642076696f6c617465204c54560000000000000000000000000000005f82015250565b5f6112c260118361127e565b91506112cd8261128e565b602082019050919050565b5f6020820190508181035f8301526112ef816112b6565b9050919050565b7f4e6f7420756e646572636f6c6c61746572616c697a65640000000000000000005f82015250565b5f61132a60178361127e565b9150611335826112f6565b602082019050919050565b5f6020820190508181035f8301526113578161131e565b9050919050565b5f6040820190506113715f830185611123565b61137e6020830184611123565b9392505050565b7f526570617920746f6f206d7563680000000000000000000000000000000000005f82015250565b5f6113b9600e8361127e565b91506113c482611385565b602082019050919050565b5f6020820190508181035f8301526113e6816113ad565b9050919050565b7f416d6f756e74206d75737420626520706f7369746976650000000000000000005f82015250565b5f61142160178361127e565b915061142c826113ed565b602082019050919050565b5f6020820190508181035f83015261144e81611415565b9050919050565b5f61145f82610fcc565b915061146a83610fcc565b925082820190508082111561148257611481611180565b5b92915050565b7f4e6f20636f6c6c61746572616c000000000000000000000000000000000000005f82015250565b5f6114bc600d8361127e565b91506114c782611488565b602082019050919050565b5f6020820190508181035f8301526114e9816114b0565b9050919050565b7f45786365656473204c54560000000000000000000000000000000000000000005f82015250565b5f611524600b8361127e565b915061152f826114f0565b602082019050919050565b5f6020820190508181035f83015261155181611518565b9050919050565b61156181611049565b82525050565b5f60208201905061157a5f830184611558565b9291505056fea2646970667358221220a7195525c32225404774edbe7b396580743c5a2a5c4247fba0a495812685e40e64736f6c63430008210033","linkReferences":{}},"methodIdentifiers":{"INTEREST_RATE()":"5b72a33a","LIQUIDATION_THRESHOLD()":"90a8ae9b","LTV()":"62965d8e","SECONDS_PER_YEAR()":"e6a69ab8","borrow(uint256)":"c5ebeaec","borrowToken()":"456dc17a","collateralPrice()":"5891de72","collateralToken()":"b2016bd4","deposit(uint256)":"b6b55f25","getBorrowed(address)":"6011163e","getCurrentBorrow(address)":"81e95d46","getDeposited(address)":"466bb312","getHealthFactor(address)":"fe6bcd7c","interestRatePerSecond()":"9cc820da","liquidate(address)":"2f865568","positions(address)":"55f57510","repay(uint256)":"371fd8e6","setCollateralPrice(uint256)":"a1865cb5","withdraw(uint256)":"2e1a7d4d"},"id":29}