{"abi":[{"type":"constructor","inputs":[{"name":"_collateral","type":"address","internalType":"address"},{"name":"_borrow","type":"address","internalType":"address"}],"stateMutability":"nonpayable"},{"type":"function","name":"INTEREST_RATE","inputs":[],"outputs":[{"name":"","type":"uint256","internalType":"uint256"}],"stateMutability":"view"},{"type":"function","name":"LIQUIDATION_THRESHOLD","inputs":[],"outputs":[{"name":"","type":"uint256","internalType":"uint256"}],"stateMutability":"view"},{"type":"function","name":"LTV","inputs":[],"outputs":[{"name":"","type":"uint256","internalType":"uint256"}],"stateMutability":"view"},{"type":"function","name":"SECONDS_PER_YEAR","inputs":[],"outputs":[{"name":"","type":"uint256","internalType":"uint256"}],"stateMutability":"view"},{"type":"function","name":"borrow","inputs":[{"name":"amount","type":"uint256","internalType":"uint256"}],"outputs":[],"stateMutability":"nonpayable"},{"type":"function","name":"borrowToken","inputs":[],"outputs":[{"name":"","type":"address","internalType":"contract IERC20"}],"stateMutability":"view"},{"type":"function","name":"collateralPrice","inputs":[],"outputs":[{"name":"","type":"uint256","internalType":"uint256"}],"stateMutability":"view"},{"type":"function","name":"collateralToken","inputs":[],"outputs":[{"name":"","type":"address","internalType":"contract IERC20"}],"stateMutability":"view"},{"type":"function","name":"deposit","inputs":[{"name":"amount","type":"uint256","internalType":"uint256"}],"outputs":[],"stateMutability":"nonpayable"},{"type":"function","name":"getBorrowed","inputs":[{"name":"user","type":"address","internalType":"address"}],"outputs":[{"name":"","type":"uint256","internalType":"uint256"}],"stateMutability":"view"},{"type":"function","name":"getCurrentBorrow","inputs":[{"name":"user","type":"address","internalType":"address"}],"outputs":[{"name":"","type":"uint256","internalType":"uint256"}],"stateMutability":"view"},{"type":"function","name":"getDeposited","inputs":[{"name":"user","type":"address","internalType":"address"}],"outputs":[{"name":"","type":"uint256","internalType":"uint256"}],"stateMutability":"view"},{"type":"function","name":"getHealthFactor","inputs":[{"name":"user","type":"address","internalType":"address"}],"outputs":[{"name":"","type":"uint256","internalType":"uint256"}],"stateMutability":"view"},{"type":"function","name":"interestRatePerSecond","inputs":[],"outputs":[{"name":"","type":"uint256","internalType":"uint256"}],"stateMutability":"view"},{"type":"function","name":"liquidate","inputs":[{"name":"user","type":"address","internalType":"address"}],"outputs":[],"stateMutability":"nonpayable"},{"type":"function","name":"owner","inputs":[],"outputs":[{"name":"","type":"address","internalType":"address"}],"stateMutability":"view"},{"type":"function","name":"positions","inputs":[{"name":"","type":"address","internalType":"address"}],"outputs":[{"name":"deposited","type":"uint256","internalType":"uint256"},{"name":"borrowed","type":"uint256","internalType":"uint256"},{"name":"lastUpdate","type":"uint256","internalType":"uint256"}],"stateMutability":"view"},{"type":"function","name":"repay","inputs":[{"name":"amount","type":"uint256","internalType":"uint256"}],"outputs":[],"stateMutability":"nonpayable"},{"type":"function","name":"setCollateralPrice","inputs":[{"name":"price","type":"uint256","internalType":"uint256"}],"outputs":[],"stateMutability":"nonpayable"},{"type":"function","name":"withdraw","inputs":[{"name":"amount","type":"uint256","internalType":"uint256"}],"outputs":[],"stateMutability":"nonpayable"},{"type":"event","name":"Borrowed","inputs":[{"name":"user","type":"address","indexed":true,"internalType":"address"},{"name":"amount","type":"uint256","indexed":false,"internalType":"uint256"}],"anonymous":false},{"type":"event","name":"Deposited","inputs":[{"name":"user","type":"address","indexed":true,"internalType":"address"},{"name":"amount","type":"uint256","indexed":false,"internalType":"uint256"}],"anonymous":false},{"type":"event","name":"Liquidated","inputs":[{"name":"user","type":"address","indexed":true,"internalType":"address"},{"name":"debtPaid","type":"uint256","indexed":false,"internalType":"uint256"},{"name":"collateralSeized","type":"uint256","indexed":false,"internalType":"uint256"}],"anonymous":false},{"type":"event","name":"Repaid","inputs":[{"name":"user","type":"address","indexed":true,"internalType":"address"},{"name":"amount","type":"uint256","indexed":false,"internalType":"uint256"}],"anonymous":false},{"type":"event","name":"Withdrawn","inputs":[{"name":"user","type":"address","indexed":true,"internalType":"address"},{"name":"amount","type":"uint256","indexed":false,"internalType":"uint256"}],"anonymous":false},{"type":"error","name":"SafeERC20FailedOperation","inputs":[{"name":"token","type":"address","internalType":"address"}]}],"bytecode":{"object":"0x60806040526301e133806064670de0b6b3a7640000600a610020919061016c565b61002a91906101da565b61003491906101da565b600255670de0b6b3a764000060035534801561004e575f5ffd5b506040516119ae3803806119ae83398181016040528101906100709190610268565b815f5f6101000a81548173ffffffffffffffffffffffffffffffffffffffff021916908373ffffffffffffffffffffffffffffffffffffffff1602179055508060015f6101000a81548173ffffffffffffffffffffffffffffffffffffffff021916908373ffffffffffffffffffffffffffffffffffffffff1602179055503360055f6101000a81548173ffffffffffffffffffffffffffffffffffffffff021916908373ffffffffffffffffffffffffffffffffffffffff16021790555050506102a6565b5f819050919050565b7f4e487b71000000000000000000000000000000000000000000000000000000005f52601160045260245ffd5b5f61017682610136565b915061018183610136565b925082820261018f81610136565b915082820484148315176101a6576101a561013f565b5b5092915050565b7f4e487b71000000000000000000000000000000000000000000000000000000005f52601260045260245ffd5b5f6101e482610136565b91506101ef83610136565b9250826101ff576101fe6101ad565b5b828204905092915050565b5f5ffd5b5f73ffffffffffffffffffffffffffffffffffffffff82169050919050565b5f6102378261020e565b9050919050565b6102478161022d565b8114610251575f5ffd5b50565b5f815190506102628161023e565b92915050565b5f5f6040838503121561027e5761027d61020a565b5b5f61028b85828601610254565b925050602061029c85828601610254565b9150509250929050565b6116fb806102b35f395ff3fe608060405234801561000f575f5ffd5b506004361061012a575f3560e01c806381e95d46116100ab578063b2016bd41161006f578063b2016bd414610332578063b6b55f2514610350578063c5ebeaec1461036c578063e6a69ab814610388578063fe6bcd7c146103a65761012a565b806381e95d461461028c5780638da5cb5b146102bc57806390a8ae9b146102da5780639cc820da146102f8578063a1865cb5146103165761012a565b806355f57510116100f257806355f57510146101d05780635891de72146102025780635b72a33a146102205780636011163e1461023e57806362965d8e1461026e5761012a565b80632e1a7d4d1461012e5780632f8655681461014a578063371fd8e614610166578063456dc17a14610182578063466bb312146101a0575b5f5ffd5b610148600480360381019061014391906110dc565b6103d6565b005b610164600480360381019061015f9190611161565b610567565b005b610180600480360381019061017b91906110dc565b61070f565b005b61018a61086a565b60405161019791906111e7565b60405180910390f35b6101ba60048036038101906101b59190611161565b61088f565b6040516101c7919061120f565b60405180910390f35b6101ea60048036038101906101e59190611161565b6108d7565b6040516101f993929190611228565b60405180910390f35b61020a6108fd565b604051610217919061120f565b60405180910390f35b610228610903565b604051610235919061120f565b60405180910390f35b61025860048036038101906102539190611161565b610908565b604051610265919061120f565b60405180910390f35b610276610951565b604051610283919061120f565b60405180910390f35b6102a660048036038101906102a19190611161565b610956565b6040516102b3919061120f565b60405180910390f35b6102c4610967565b6040516102d1919061126c565b60405180910390f35b6102e261098c565b6040516102ef919061120f565b60405180910390f35b610300610991565b60405161030d919061120f565b60405180910390f35b610330600480360381019061032b91906110dc565b610997565b005b61033a610a30565b60405161034791906111e7565b60405180910390f35b61036a600480360381019061036591906110dc565b610a54565b005b610386600480360381019061038191906110dc565b610bce565b005b610390610daf565b60405161039d919061120f565b60405180910390f35b6103c060048036038101906103bb9190611161565b610db7565b6040516103cd919061120f565b60405180910390f35b5f60045f3373ffffffffffffffffffffffffffffffffffffffff1673ffffffffffffffffffffffffffffffffffffffff1681526020019081526020015f2090505f61042033610e89565b90505f600354604b670de0b6b3a764000060648561043e91906112b2565b61044891906112b2565b6104529190611320565b61045c9190611320565b835f015461046a9190611350565b9050808411156104af576040517f08c379a00000000000000000000000000000000000000000000000000000000081526004016104a6906113dd565b60405180910390fd5b83835f015f8282546104c19190611350565b9250508190555061051333855f5f9054906101000a900473ffffffffffffffffffffffffffffffffffffffff1673ffffffffffffffffffffffffffffffffffffffff16610f2a9092919063ffffffff16565b3373ffffffffffffffffffffffffffffffffffffffff167f7084f5476618d8e60b11ef0d7d3f06914655adb8793e28ff7f018d4c76d505d585604051610559919061120f565b60405180910390a250505050565b5f60045f8373ffffffffffffffffffffffffffffffffffffffff1673ffffffffffffffffffffffffffffffffffffffff1681526020019081526020015f2090505f6105b183610db7565b9050670de0b6b3a764000081106105fd576040517f08c379a00000000000000000000000000000000000000000000000000000000081526004016105f490611445565b60405180910390fd5b5f61060784610e89565b905061065733308360015f9054906101000a900473ffffffffffffffffffffffffffffffffffffffff1673ffffffffffffffffffffffffffffffffffffffff16610f7d909392919063ffffffff16565b6106a533845f01545f5f9054906101000a900473ffffffffffffffffffffffffffffffffffffffff1673ffffffffffffffffffffffffffffffffffffffff16610f2a9092919063ffffffff16565b8373ffffffffffffffffffffffffffffffffffffffff167f09c223cfcd8c93e245f558f5f8de755fc0930fd9bc257441155ef5d54a170e0f82855f01546040516106f0929190611463565b60405180910390a25f835f01819055505f836001018190555050505050565b5f60045f3373ffffffffffffffffffffffffffffffffffffffff1673ffffffffffffffffffffffffffffffffffffffff1681526020019081526020015f2090505f61075933610e89565b90508083111561079e576040517f08c379a0000000000000000000000000000000000000000000000000000000008152600401610795906114d4565b60405180910390fd5b6107ec33308560015f9054906101000a900473ffffffffffffffffffffffffffffffffffffffff1673ffffffffffffffffffffffffffffffffffffffff16610f7d909392919063ffffffff16565b8281116107f9575f610806565b82816108059190611350565b5b82600101819055504282600201819055503373ffffffffffffffffffffffffffffffffffffffff167f0516911bcc3a0a7412a44601057c0a0a1ec628bde049a84284bc4288665344888460405161085d919061120f565b60405180910390a2505050565b60015f9054906101000a900473ffffffffffffffffffffffffffffffffffffffff1681565b5f60045f8373ffffffffffffffffffffffffffffffffffffffff1673ffffffffffffffffffffffffffffffffffffffff1681526020019081526020015f205f01549050919050565b6004602052805f5260405f205f91509050805f0154908060010154908060020154905083565b60035481565b600a81565b5f60045f8373ffffffffffffffffffffffffffffffffffffffff1673ffffffffffffffffffffffffffffffffffffffff1681526020019081526020015f20600101549050919050565b604b81565b5f61096082610e89565b9050919050565b60055f9054906101000a900473ffffffffffffffffffffffffffffffffffffffff1681565b605081565b60025481565b60055f9054906101000a900473ffffffffffffffffffffffffffffffffffffffff1673ffffffffffffffffffffffffffffffffffffffff163373ffffffffffffffffffffffffffffffffffffffff1614610a26576040517f08c379a0000000000000000000000000000000000000000000000000000000008152600401610a1d9061153c565b60405180910390fd5b8060038190555050565b5f5f9054906101000a900473ffffffffffffffffffffffffffffffffffffffff1681565b5f8111610a96576040517f08c379a0000000000000000000000000000000000000000000000000000000008152600401610a8d906115a4565b60405180910390fd5b610ae33330835f5f9054906101000a900473ffffffffffffffffffffffffffffffffffffffff1673ffffffffffffffffffffffffffffffffffffffff16610f7d909392919063ffffffff16565b8060045f3373ffffffffffffffffffffffffffffffffffffffff1673ffffffffffffffffffffffffffffffffffffffff1681526020019081526020015f205f015f828254610b3191906115c2565b925050819055504260045f3373ffffffffffffffffffffffffffffffffffffffff1673ffffffffffffffffffffffffffffffffffffffff1681526020019081526020015f20600201819055503373ffffffffffffffffffffffffffffffffffffffff167f2da466a7b24304f47e87fa2e1e5a81b9831ce54fec19055ce277ca2f39ba42c482604051610bc3919061120f565b60405180910390a250565b5f60045f3373ffffffffffffffffffffffffffffffffffffffff1673ffffffffffffffffffffffffffffffffffffffff1681526020019081526020015f2090505f815f015411610c53576040517f08c379a0000000000000000000000000000000000000000000000000000000008152600401610c4a9061163f565b60405180910390fd5b5f670de0b6b3a76400006064604b600354855f0154610c7291906112b2565b610c7c91906112b2565b610c869190611320565b610c909190611320565b90505f610c9c33610e89565b9050818482610cab91906115c2565b1115610cec576040517f08c379a0000000000000000000000000000000000000000000000000000000008152600401610ce3906116a7565b60405180910390fd5b610d38338560015f9054906101000a900473ffffffffffffffffffffffffffffffffffffffff1673ffffffffffffffffffffffffffffffffffffffff16610f2a9092919063ffffffff16565b83836001015f828254610d4b91906115c2565b925050819055504283600201819055503373ffffffffffffffffffffffffffffffffffffffff167fac59582e5396aca512fa873a2047e7f4c80f8f55d4a06cb34a78a0187f62719f85604051610da1919061120f565b60405180910390a250505050565b6301e1338081565b5f5f60045f8473ffffffffffffffffffffffffffffffffffffffff1673ffffffffffffffffffffffffffffffffffffffff1681526020019081526020015f2090505f816001015403610e2c577fffffffffffffffffffffffffffffffffffffffffffffffffffffffffffffffff915050610e84565b5f610e3684610e89565b90505f670de0b6b3a7640000600354845f0154610e5391906112b2565b610e5d9190611320565b905081670de0b6b3a764000082610e7491906112b2565b610e7e9190611320565b93505050505b919050565b5f5f60045f8473ffffffffffffffffffffffffffffffffffffffff1673ffffffffffffffffffffffffffffffffffffffff1681526020019081526020015f2090505f816002015442610edb9190611350565b90505f670de0b6b3a7640000826002548560010154610efa91906112b2565b610f0491906112b2565b610f0e9190611320565b9050808360010154610f2091906115c2565b9350505050919050565b610f378383836001610fd2565b610f7857826040517f5274afe7000000000000000000000000000000000000000000000000000000008152600401610f6f919061126c565b60405180910390fd5b505050565b610f8b848484846001611034565b610fcc57836040517f5274afe7000000000000000000000000000000000000000000000000000000008152600401610fc3919061126c565b60405180910390fd5b50505050565b5f5f63a9059cbb60e01b9050604051815f525f1960601c86166004528460245260205f60445f5f8b5af1925060015f5114831661102657838315161561101a573d5f823e3d81fd5b5f873b113d1516831692505b806040525050949350505050565b5f5f6323b872dd60e01b9050604051815f525f1960601c87166004525f1960601c86166024528460445260205f60645f5f8c5af1925060015f51148316611092578383151615611086573d5f823e3d81fd5b5f883b113d1516831692505b806040525f606052505095945050505050565b5f5ffd5b5f819050919050565b6110bb816110a9565b81146110c5575f5ffd5b50565b5f813590506110d6816110b2565b92915050565b5f602082840312156110f1576110f06110a5565b5b5f6110fe848285016110c8565b91505092915050565b5f73ffffffffffffffffffffffffffffffffffffffff82169050919050565b5f61113082611107565b9050919050565b61114081611126565b811461114a575f5ffd5b50565b5f8135905061115b81611137565b92915050565b5f60208284031215611176576111756110a5565b5b5f6111838482850161114d565b91505092915050565b5f819050919050565b5f6111af6111aa6111a584611107565b61118c565b611107565b9050919050565b5f6111c082611195565b9050919050565b5f6111d1826111b6565b9050919050565b6111e1816111c7565b82525050565b5f6020820190506111fa5f8301846111d8565b92915050565b611209816110a9565b82525050565b5f6020820190506112225f830184611200565b92915050565b5f60608201905061123b5f830186611200565b6112486020830185611200565b6112556040830184611200565b949350505050565b61126681611126565b82525050565b5f60208201905061127f5f83018461125d565b92915050565b7f4e487b71000000000000000000000000000000000000000000000000000000005f52601160045260245ffd5b5f6112bc826110a9565b91506112c7836110a9565b92508282026112d5816110a9565b915082820484148315176112ec576112eb611285565b5b5092915050565b7f4e487b71000000000000000000000000000000000000000000000000000000005f52601260045260245ffd5b5f61132a826110a9565b9150611335836110a9565b925082611345576113446112f3565b5b828204905092915050565b5f61135a826110a9565b9150611365836110a9565b925082820390508181111561137d5761137c611285565b5b92915050565b5f82825260208201905092915050565b7f576f756c642076696f6c617465204c54560000000000000000000000000000005f82015250565b5f6113c7601183611383565b91506113d282611393565b602082019050919050565b5f6020820190508181035f8301526113f4816113bb565b9050919050565b7f4e6f7420756e646572636f6c6c61746572616c697a65640000000000000000005f82015250565b5f61142f601783611383565b915061143a826113fb565b602082019050919050565b5f6020820190508181035f83015261145c81611423565b9050919050565b5f6040820190506114765f830185611200565b6114836020830184611200565b9392505050565b7f526570617920746f6f206d7563680000000000000000000000000000000000005f82015250565b5f6114be600e83611383565b91506114c98261148a565b602082019050919050565b5f6020820190508181035f8301526114eb816114b2565b9050919050565b7f4f6e6c79206f776e6572000000000000000000000000000000000000000000005f82015250565b5f611526600a83611383565b9150611531826114f2565b602082019050919050565b5f6020820190508181035f8301526115538161151a565b9050919050565b7f416d6f756e74206d75737420626520706f7369746976650000000000000000005f82015250565b5f61158e601783611383565b91506115998261155a565b602082019050919050565b5f6020820190508181035f8301526115bb81611582565b9050919050565b5f6115cc826110a9565b91506115d7836110a9565b92508282019050808211156115ef576115ee611285565b5b92915050565b7f4e6f20636f6c6c61746572616c000000000000000000000000000000000000005f82015250565b5f611629600d83611383565b9150611634826115f5565b602082019050919050565b5f6020820190508181035f8301526116568161161d565b9050919050565b7f45786365656473204c54560000000000000000000000000000000000000000005f82015250565b5f611691600b83611383565b915061169c8261165d565b602082019050919050565b5f6020820190508181035f8301526116be81611685565b905091905056fea2646970667358221220cc79139481043e1ef866d01672e1233a56533024d0d91e50125d4b2d0196a3bd64736f6c63430008210033","linkReferences":{}},"methodIdentifiers":{"INTEREST_RATE()":"5b72a33a","LIQUIDATION_THRESHOLD()":"90a8ae9b","LTV()":"62965d8e","SECONDS_PER_YEAR()":"e6a69ab8","borrow(uint256)":"c5ebeaec","borrowToken()":"456dc17a","collateralPrice()":"5891de72","collateralToken()":"b2016bd4","deposit(uint256)":"b6b55f25","getBorrowed(address)":"6011163e","getCurrentBorrow(address)":"81e95d46","getDeposited(address)":"466bb312","getHealthFactor(address)":"fe6bcd7c","interestRatePerSecond()":"9cc820da","liquidate(address)":"2f865568","owner()":"8da5cb5b","positions(address)":"55f57510","repay(uint256)":"371fd8e6","setCollateralPrice(uint256)":"a1865cb5","withdraw(uint256)":"2e1a7d4d"},"id":34}