{"abi":[{"type":"constructor","inputs":[{"name":"_tokenA","type":"address","internalType":"address"},{"name":"_tokenB","type":"address","internalType":"address"}],"stateMutability":"nonpayable"},{"type":"function","name":"FEE_DENOMINATOR","inputs":[],"outputs":[{"name":"","type":"uint256","internalType":"uint256"}],"stateMutability":"view"},{"type":"function","name":"FEE_NUMERATOR","inputs":[],"outputs":[{"name":"","type":"uint256","internalType":"uint256"}],"stateMutability":"view"},{"type":"function","name":"addLiquidity","inputs":[{"name":"amountA","type":"uint256","internalType":"uint256"},{"name":"amountB","type":"uint256","internalType":"uint256"}],"outputs":[],"stateMutability":"nonpayable"},{"type":"function","name":"getAmountOut","inputs":[{"name":"amountIn","type":"uint256","internalType":"uint256"},{"name":"tokenIn","type":"address","internalType":"address"}],"outputs":[{"name":"","type":"uint256","internalType":"uint256"}],"stateMutability":"view"},{"type":"function","name":"lpToken","inputs":[],"outputs":[{"name":"","type":"address","internalType":"contract LPToken"}],"stateMutability":"view"},{"type":"function","name":"removeLiquidity","inputs":[{"name":"liquidity","type":"uint256","internalType":"uint256"}],"outputs":[],"stateMutability":"nonpayable"},{"type":"function","name":"reserveA","inputs":[],"outputs":[{"name":"","type":"uint256","internalType":"uint256"}],"stateMutability":"view"},{"type":"function","name":"reserveB","inputs":[],"outputs":[{"name":"","type":"uint256","internalType":"uint256"}],"stateMutability":"view"},{"type":"function","name":"swap","inputs":[{"name":"amountIn","type":"uint256","internalType":"uint256"},{"name":"tokenIn","type":"address","internalType":"address"},{"name":"tokenOut","type":"address","internalType":"address"},{"name":"minAmountOut","type":"uint256","internalType":"uint256"}],"outputs":[],"stateMutability":"nonpayable"},{"type":"function","name":"tokenA","inputs":[],"outputs":[{"name":"","type":"address","internalType":"contract IERC20"}],"stateMutability":"view"},{"type":"function","name":"tokenB","inputs":[],"outputs":[{"name":"","type":"address","internalType":"contract IERC20"}],"stateMutability":"view"},{"type":"event","name":"LiquidityAdded","inputs":[{"name":"provider","type":"address","indexed":true,"internalType":"address"},{"name":"amountA","type":"uint256","indexed":false,"internalType":"uint256"},{"name":"amountB","type":"uint256","indexed":false,"internalType":"uint256"},{"name":"liquidity","type":"uint256","indexed":false,"internalType":"uint256"}],"anonymous":false},{"type":"event","name":"LiquidityRemoved","inputs":[{"name":"provider","type":"address","indexed":true,"internalType":"address"},{"name":"amountA","type":"uint256","indexed":false,"internalType":"uint256"},{"name":"amountB","type":"uint256","indexed":false,"internalType":"uint256"},{"name":"liquidity","type":"uint256","indexed":false,"internalType":"uint256"}],"anonymous":false},{"type":"event","name":"Swap","inputs":[{"name":"user","type":"address","indexed":true,"internalType":"address"},{"name":"tokenIn","type":"address","indexed":false,"internalType":"address"},{"name":"tokenOut","type":"address","indexed":false,"internalType":"address"},{"name":"amountIn","type":"uint256","indexed":false,"internalType":"uint256"},{"name":"amountOut","type":"uint256","indexed":false,"internalType":"uint256"}],"anonymous":false},{"type":"error","name":"SafeERC20FailedOperation","inputs":[{"name":"token","type":"address","internalType":"address"}]}],"bytecode":{"object":"0x608060405234801561000f575f5ffd5b506040516135a13803806135a183398181016040528101906100319190610190565b815f5f6101000a81548173ffffffffffffffffffffffffffffffffffffffff021916908373ffffffffffffffffffffffffffffffffffffffff1602179055508060015f6101000a81548173ffffffffffffffffffffffffffffffffffffffff021916908373ffffffffffffffffffffffffffffffffffffffff1602179055506040516100bc90610125565b6100c590610272565b604051809103905ff0801580156100de573d5f5f3e3d5ffd5b5060025f6101000a81548173ffffffffffffffffffffffffffffffffffffffff021916908373ffffffffffffffffffffffffffffffffffffffff16021790555050506102a3565b61167a80611f2783390190565b5f5ffd5b5f73ffffffffffffffffffffffffffffffffffffffff82169050919050565b5f61015f82610136565b9050919050565b61016f81610155565b8114610179575f5ffd5b50565b5f8151905061018a81610166565b92915050565b5f5f604083850312156101a6576101a5610132565b5b5f6101b38582860161017c565b92505060206101c48582860161017c565b9150509250929050565b5f82825260208201905092915050565b7f4c5020546f6b656e0000000000000000000000000000000000000000000000005f82015250565b5f6102126008836101ce565b915061021d826101de565b602082019050919050565b7f4c500000000000000000000000000000000000000000000000000000000000005f82015250565b5f61025c6002836101ce565b915061026782610228565b602082019050919050565b5f6040820190508181035f83015261028981610206565b9050818103602083015261029c81610250565b9050919050565b611c77806102b05f395ff3fe608060405234801561000f575f5ffd5b50600436106100a7575f3560e01c806370085be01161006f57806370085be0146101415780639c8f9f231461015d5780639cd441da14610179578063d73792a914610195578063dc5fa6c5146101b3578063f140a35a146101d1576100a7565b80630fc63d10146100ab57806319e36f3b146100c957806341cd47bf146100e75780635f64b55b146101055780635fcbd28514610123575b5f5ffd5b6100b3610201565b6040516100c0919061145b565b60405180910390f35b6100d1610225565b6040516100de919061148c565b60405180910390f35b6100ef61022b565b6040516100fc919061148c565b60405180910390f35b61010d610231565b60405161011a919061145b565b60405180910390f35b61012b610256565b60405161013891906114c5565b60405180910390f35b61015b60048036038101906101569190611547565b61027b565b005b610177600480360381019061017291906115ab565b6106b1565b005b610193600480360381019061018e91906115d6565b610ac7565b005b61019d610fa8565b6040516101aa919061148c565b60405180910390f35b6101bb610fae565b6040516101c8919061148c565b60405180910390f35b6101eb60048036038101906101e69190611614565b610fb4565b6040516101f8919061148c565b60405180910390f35b5f5f9054906101000a900473ffffffffffffffffffffffffffffffffffffffff1681565b60045481565b6103e581565b60015f9054906101000a900473ffffffffffffffffffffffffffffffffffffffff1681565b60025f9054906101000a900473ffffffffffffffffffffffffffffffffffffffff1681565b5f84116102bd576040517f08c379a00000000000000000000000000000000000000000000000000000000081526004016102b4906116ac565b60405180910390fd5b8173ffffffffffffffffffffffffffffffffffffffff168373ffffffffffffffffffffffffffffffffffffffff160361032b576040517f08c379a000000000000000000000000000000000000000000000000000000000815260040161032290611714565b60405180910390fd5b5f5f9054906101000a900473ffffffffffffffffffffffffffffffffffffffff1673ffffffffffffffffffffffffffffffffffffffff168373ffffffffffffffffffffffffffffffffffffffff1614806103d1575060015f9054906101000a900473ffffffffffffffffffffffffffffffffffffffff1673ffffffffffffffffffffffffffffffffffffffff168373ffffffffffffffffffffffffffffffffffffffff16145b610410576040517f08c379a00000000000000000000000000000000000000000000000000000000081526004016104079061177c565b60405180910390fd5b5f5f9054906101000a900473ffffffffffffffffffffffffffffffffffffffff1673ffffffffffffffffffffffffffffffffffffffff168273ffffffffffffffffffffffffffffffffffffffff1614806104b6575060015f9054906101000a900473ffffffffffffffffffffffffffffffffffffffff1673ffffffffffffffffffffffffffffffffffffffff168273ffffffffffffffffffffffffffffffffffffffff16145b6104f5576040517f08c379a00000000000000000000000000000000000000000000000000000000081526004016104ec906117e4565b60405180910390fd5b5f6105008585610fb4565b905081811015610545576040517f08c379a000000000000000000000000000000000000000000000000000000000815260040161053c9061184c565b60405180910390fd5b5f5f9054906101000a900473ffffffffffffffffffffffffffffffffffffffff1673ffffffffffffffffffffffffffffffffffffffff168473ffffffffffffffffffffffffffffffffffffffff16036105cd578460035f8282546105a99190611897565b925050819055508060045f8282546105c191906118ca565b925050819055506105fe565b8460045f8282546105de9190611897565b925050819055508060035f8282546105f691906118ca565b925050819055505b61062b3330878773ffffffffffffffffffffffffffffffffffffffff166111f5909392919063ffffffff16565b61065633828573ffffffffffffffffffffffffffffffffffffffff1661124a9092919063ffffffff16565b3373ffffffffffffffffffffffffffffffffffffffff167fcd3829a3813dc3cdd188fd3d01dcf3268c16be2fdd2dd21d0665418816e46062858588856040516106a2949392919061190c565b60405180910390a25050505050565b5f81116106f3576040517f08c379a00000000000000000000000000000000000000000000000000000000081526004016106ea90611999565b60405180910390fd5b8060025f9054906101000a900473ffffffffffffffffffffffffffffffffffffffff1673ffffffffffffffffffffffffffffffffffffffff166370a08231336040518263ffffffff1660e01b815260040161074e91906119b7565b602060405180830381865afa158015610769573d5f5f3e3d5ffd5b505050506040513d601f19601f8201168201806040525081019061078d91906119e4565b10156107ce576040517f08c379a00000000000000000000000000000000000000000000000000000000081526004016107c590611a59565b60405180910390fd5b5f60025f9054906101000a900473ffffffffffffffffffffffffffffffffffffffff1673ffffffffffffffffffffffffffffffffffffffff166318160ddd6040518163ffffffff1660e01b8152600401602060405180830381865afa158015610839573d5f5f3e3d5ffd5b505050506040513d601f19601f8201168201806040525081019061085d91906119e4565b6003548361086b9190611a77565b6108759190611ae5565b90505f60025f9054906101000a900473ffffffffffffffffffffffffffffffffffffffff1673ffffffffffffffffffffffffffffffffffffffff166318160ddd6040518163ffffffff1660e01b8152600401602060405180830381865afa1580156108e2573d5f5f3e3d5ffd5b505050506040513d601f19601f8201168201806040525081019061090691906119e4565b600454846109149190611a77565b61091e9190611ae5565b905060025f9054906101000a900473ffffffffffffffffffffffffffffffffffffffff1673ffffffffffffffffffffffffffffffffffffffff16639dc29fac33856040518363ffffffff1660e01b815260040161097c929190611b15565b5f604051808303815f87803b158015610993575f5ffd5b505af11580156109a5573d5f5f3e3d5ffd5b505050508160035f8282546109ba91906118ca565b925050819055508060045f8282546109d291906118ca565b92505081905550610a2433835f5f9054906101000a900473ffffffffffffffffffffffffffffffffffffffff1673ffffffffffffffffffffffffffffffffffffffff1661124a9092919063ffffffff16565b610a70338260015f9054906101000a900473ffffffffffffffffffffffffffffffffffffffff1673ffffffffffffffffffffffffffffffffffffffff1661124a9092919063ffffffff16565b3373ffffffffffffffffffffffffffffffffffffffff167f1dc8bb69df2b8e91fbdcbfcf93d951b3f0000f085a95fe3f7946d6161439245d838386604051610aba93929190611b3c565b60405180910390a2505050565b5f82118015610ad557505f81115b610b14576040517f08c379a0000000000000000000000000000000000000000000000000000000008152600401610b0b90611bbb565b60405180910390fd5b5f5f600354148015610b2757505f600454145b15610b4757610b408284610b3b9190611a77565b61129d565b9050610dfd565b5f60035460025f9054906101000a900473ffffffffffffffffffffffffffffffffffffffff1673ffffffffffffffffffffffffffffffffffffffff166318160ddd6040518163ffffffff1660e01b8152600401602060405180830381865afa158015610bb5573d5f5f3e3d5ffd5b505050506040513d601f19601f82011682018060405250810190610bd991906119e4565b85610be49190611a77565b610bee9190611ae5565b90505f60045460025f9054906101000a900473ffffffffffffffffffffffffffffffffffffffff1673ffffffffffffffffffffffffffffffffffffffff166318160ddd6040518163ffffffff1660e01b8152600401602060405180830381865afa158015610c5e573d5f5f3e3d5ffd5b505050506040513d601f19601f82011682018060405250810190610c8291906119e4565b85610c8d9190611a77565b610c979190611ae5565b9050808210610ca65780610ca8565b815b925060025f9054906101000a900473ffffffffffffffffffffffffffffffffffffffff1673ffffffffffffffffffffffffffffffffffffffff166318160ddd6040518163ffffffff1660e01b8152600401602060405180830381865afa158015610d14573d5f5f3e3d5ffd5b505050506040513d601f19601f82011682018060405250810190610d3891906119e4565b60035484610d469190611a77565b610d509190611ae5565b945060025f9054906101000a900473ffffffffffffffffffffffffffffffffffffffff1673ffffffffffffffffffffffffffffffffffffffff166318160ddd6040518163ffffffff1660e01b8152600401602060405180830381865afa158015610dbc573d5f5f3e3d5ffd5b505050506040513d601f19601f82011682018060405250810190610de091906119e4565b60045484610dee9190611a77565b610df89190611ae5565b935050505b610e4a3330855f5f9054906101000a900473ffffffffffffffffffffffffffffffffffffffff1673ffffffffffffffffffffffffffffffffffffffff166111f5909392919063ffffffff16565b610e9833308460015f9054906101000a900473ffffffffffffffffffffffffffffffffffffffff1673ffffffffffffffffffffffffffffffffffffffff166111f5909392919063ffffffff16565b8260035f828254610ea99190611897565b925050819055508160045f828254610ec19190611897565b9250508190555060025f9054906101000a900473ffffffffffffffffffffffffffffffffffffffff1673ffffffffffffffffffffffffffffffffffffffff166340c10f1933836040518363ffffffff1660e01b8152600401610f24929190611b15565b5f604051808303815f87803b158015610f3b575f5ffd5b505af1158015610f4d573d5f5f3e3d5ffd5b505050503373ffffffffffffffffffffffffffffffffffffffff167f64b83944e79c3ce8d4c297411de637c3e102d064677aac0c163976ebdcd6f50e848484604051610f9b93929190611b3c565b60405180910390a2505050565b6103e881565b60035481565b5f5f8311610ff7576040517f08c379a0000000000000000000000000000000000000000000000000000000008152600401610fee906116ac565b60405180910390fd5b5f5f9054906101000a900473ffffffffffffffffffffffffffffffffffffffff1673ffffffffffffffffffffffffffffffffffffffff168273ffffffffffffffffffffffffffffffffffffffff16148061109d575060015f9054906101000a900473ffffffffffffffffffffffffffffffffffffffff1673ffffffffffffffffffffffffffffffffffffffff168273ffffffffffffffffffffffffffffffffffffffff16145b6110dc576040517f08c379a00000000000000000000000000000000000000000000000000000000081526004016110d390611c23565b60405180910390fd5b5f5f5f9054906101000a900473ffffffffffffffffffffffffffffffffffffffff1673ffffffffffffffffffffffffffffffffffffffff168373ffffffffffffffffffffffffffffffffffffffff16146111385760045461113c565b6003545b90505f5f5f9054906101000a900473ffffffffffffffffffffffffffffffffffffffff1673ffffffffffffffffffffffffffffffffffffffff168473ffffffffffffffffffffffffffffffffffffffff161461119a5760035461119e565b6004545b90505f6103e5866111af9190611a77565b90505f82826111be9190611a77565b90505f826103e8866111d09190611a77565b6111da9190611897565b905080826111e89190611ae5565b9550505050505092915050565b61120384848484600161130e565b61124457836040517f5274afe700000000000000000000000000000000000000000000000000000000815260040161123b91906119b7565b60405180910390fd5b50505050565b611257838383600161137f565b61129857826040517f5274afe700000000000000000000000000000000000000000000000000000000815260040161128f91906119b7565b60405180910390fd5b505050565b5f5f82036112ad575f9050611309565b5f60026001846112bd9190611897565b6112c79190611ae5565b90505f8390505b808210156113035781905060028283866112e89190611ae5565b6112f29190611897565b6112fc9190611ae5565b91506112ce565b80925050505b919050565b5f5f6323b872dd60e01b9050604051815f525f1960601c87166004525f1960601c86166024528460445260205f60645f5f8c5af1925060015f5114831661136c578383151615611360573d5f823e3d81fd5b5f883b113d1516831692505b806040525f606052505095945050505050565b5f5f63a9059cbb60e01b9050604051815f525f1960601c86166004528460245260205f60445f5f8b5af1925060015f511483166113d35783831516156113c7573d5f823e3d81fd5b5f873b113d1516831692505b806040525050949350505050565b5f73ffffffffffffffffffffffffffffffffffffffff82169050919050565b5f819050919050565b5f61142361141e611419846113e1565b611400565b6113e1565b9050919050565b5f61143482611409565b9050919050565b5f6114458261142a565b9050919050565b6114558161143b565b82525050565b5f60208201905061146e5f83018461144c565b92915050565b5f819050919050565b61148681611474565b82525050565b5f60208201905061149f5f83018461147d565b92915050565b5f6114af8261142a565b9050919050565b6114bf816114a5565b82525050565b5f6020820190506114d85f8301846114b6565b92915050565b5f5ffd5b6114eb81611474565b81146114f5575f5ffd5b50565b5f81359050611506816114e2565b92915050565b5f611516826113e1565b9050919050565b6115268161150c565b8114611530575f5ffd5b50565b5f813590506115418161151d565b92915050565b5f5f5f5f6080858703121561155f5761155e6114de565b5b5f61156c878288016114f8565b945050602061157d87828801611533565b935050604061158e87828801611533565b925050606061159f878288016114f8565b91505092959194509250565b5f602082840312156115c0576115bf6114de565b5b5f6115cd848285016114f8565b91505092915050565b5f5f604083850312156115ec576115eb6114de565b5b5f6115f9858286016114f8565b925050602061160a858286016114f8565b9150509250929050565b5f5f6040838503121561162a576116296114de565b5b5f611637858286016114f8565b925050602061164885828601611533565b9150509250929050565b5f82825260208201905092915050565b7f416d6f756e7420696e206d75737420626520706f7369746976650000000000005f82015250565b5f611696601a83611652565b91506116a182611662565b602082019050919050565b5f6020820190508181035f8301526116c38161168a565b9050919050565b7f546f6b656e73206d75737420626520646966666572656e7400000000000000005f82015250565b5f6116fe601883611652565b9150611709826116ca565b602082019050919050565b5f6020820190508181035f83015261172b816116f2565b9050919050565b7f496e76616c696420746f6b656e20696e000000000000000000000000000000005f82015250565b5f611766601083611652565b915061177182611732565b602082019050919050565b5f6020820190508181035f8301526117938161175a565b9050919050565b7f496e76616c696420746f6b656e206f75740000000000000000000000000000005f82015250565b5f6117ce601183611652565b91506117d98261179a565b602082019050919050565b5f6020820190508181035f8301526117fb816117c2565b9050919050565b7f536c6970706167652070726f74656374696f6e000000000000000000000000005f82015250565b5f611836601383611652565b915061184182611802565b602082019050919050565b5f6020820190508181035f8301526118638161182a565b9050919050565b7f4e487b71000000000000000000000000000000000000000000000000000000005f52601160045260245ffd5b5f6118a182611474565b91506118ac83611474565b92508282019050808211156118c4576118c361186a565b5b92915050565b5f6118d482611474565b91506118df83611474565b92508282039050818111156118f7576118f661186a565b5b92915050565b6119068161150c565b82525050565b5f60808201905061191f5f8301876118fd565b61192c60208301866118fd565b611939604083018561147d565b611946606083018461147d565b95945050505050565b7f4c6971756964697479206d75737420626520706f7369746976650000000000005f82015250565b5f611983601a83611652565b915061198e8261194f565b602082019050919050565b5f6020820190508181035f8301526119b081611977565b9050919050565b5f6020820190506119ca5f8301846118fd565b92915050565b5f815190506119de816114e2565b92915050565b5f602082840312156119f9576119f86114de565b5b5f611a06848285016119d0565b91505092915050565b7f496e73756666696369656e74204c5020746f6b656e73000000000000000000005f82015250565b5f611a43601683611652565b9150611a4e82611a0f565b602082019050919050565b5f6020820190508181035f830152611a7081611a37565b9050919050565b5f611a8182611474565b9150611a8c83611474565b9250828202611a9a81611474565b91508282048414831517611ab157611ab061186a565b5b5092915050565b7f4e487b71000000000000000000000000000000000000000000000000000000005f52601260045260245ffd5b5f611aef82611474565b9150611afa83611474565b925082611b0a57611b09611ab8565b5b828204905092915050565b5f604082019050611b285f8301856118fd565b611b35602083018461147d565b9392505050565b5f606082019050611b4f5f83018661147d565b611b5c602083018561147d565b611b69604083018461147d565b949350505050565b7f416d6f756e7473206d75737420626520706f73697469766500000000000000005f82015250565b5f611ba5601883611652565b9150611bb082611b71565b602082019050919050565b5f6020820190508181035f830152611bd281611b99565b9050919050565b7f496e76616c696420746f6b656e000000000000000000000000000000000000005f82015250565b5f611c0d600d83611652565b9150611c1882611bd9565b602082019050919050565b5f6020820190508181035f830152611c3a81611c01565b905091905056fea2646970667358221220a1c9d940a24745f68ae0c39b6430eb0da764966d78c055f8a648e920262e6c2b64736f6c63430008210033608060405234801561000f575f5ffd5b5060405161167a38038061167a833981810160405281019061003191906101e9565b818181600390816100429190610480565b5080600490816100529190610480565b5050503360055f6101000a81548173ffffffffffffffffffffffffffffffffffffffff021916908373ffffffffffffffffffffffffffffffffffffffff160217905550505061054f565b5f604051905090565b5f5ffd5b5f5ffd5b5f5ffd5b5f5ffd5b5f601f19601f8301169050919050565b7f4e487b71000000000000000000000000000000000000000000000000000000005f52604160045260245ffd5b6100fb826100b5565b810181811067ffffffffffffffff8211171561011a576101196100c5565b5b80604052505050565b5f61012c61009c565b905061013882826100f2565b919050565b5f67ffffffffffffffff821115610157576101566100c5565b5b610160826100b5565b9050602081019050919050565b8281835e5f83830152505050565b5f61018d6101888461013d565b610123565b9050828152602081018484840111156101a9576101a86100b1565b5b6101b484828561016d565b509392505050565b5f82601f8301126101d0576101cf6100ad565b5b81516101e084826020860161017b565b91505092915050565b5f5f604083850312156101ff576101fe6100a5565b5b5f83015167ffffffffffffffff81111561021c5761021b6100a9565b5b610228858286016101bc565b925050602083015167ffffffffffffffff811115610249576102486100a9565b5b610255858286016101bc565b9150509250929050565b5f81519050919050565b7f4e487b71000000000000000000000000000000000000000000000000000000005f52602260045260245ffd5b5f60028204905060018216806102ad57607f821691505b6020821081036102c0576102bf610269565b5b50919050565b5f819050815f5260205f209050919050565b5f6020601f8301049050919050565b5f82821b905092915050565b5f600883026103227fffffffffffffffffffffffffffffffffffffffffffffffffffffffffffffffff826102e7565b61032c86836102e7565b95508019841693508086168417925050509392505050565b5f819050919050565b5f819050919050565b5f61037061036b61036684610344565b61034d565b610344565b9050919050565b5f819050919050565b61038983610356565b61039d61039582610377565b8484546102f3565b825550505050565b5f5f905090565b6103b46103a5565b6103bf818484610380565b505050565b5f5b828110156103e5576103da5f8284016103ac565b6001810190506103c6565b505050565b601f821115610438578282111561043757610404816102c6565b61040d836102d8565b610416856102d8565b6020861015610423575f90505b808301610432828403826103c4565b505050505b5b505050565b5f82821c905092915050565b5f6104585f198460080261043d565b1980831691505092915050565b5f6104708383610449565b9150826002028217905092915050565b6104898261025f565b67ffffffffffffffff8111156104a2576104a16100c5565b5b6104ac8254610296565b6104b78282856103ea565b5f60209050601f8311600181146104e8575f84156104d6578287015190505b6104e08582610465565b865550610547565b601f1984166104f6866102c6565b5f5b8281101561051d578489015182556001820191506020850194506020810190506104f8565b8683101561053a5784890151610536601f891682610449565b8355505b6001600288020188555050505b505050505050565b61111e8061055c5f395ff3fe608060405234801561000f575f5ffd5b50600436106100b2575f3560e01c806370a082311161006f57806370a082311461018c5780638da5cb5b146101bc57806395d89b41146101da5780639dc29fac146101f8578063a9059cbb14610214578063dd62ed3e14610244576100b2565b806306fdde03146100b6578063095ea7b3146100d457806318160ddd1461010457806323b872dd14610122578063313ce5671461015257806340c10f1914610170575b5f5ffd5b6100be610274565b6040516100cb9190610d2f565b60405180910390f35b6100ee60048036038101906100e99190610de0565b610304565b6040516100fb9190610e38565b60405180910390f35b61010c610326565b6040516101199190610e60565b60405180910390f35b61013c60048036038101906101379190610e79565b61032f565b6040516101499190610e38565b60405180910390f35b61015a61035d565b6040516101679190610ee4565b60405180910390f35b61018a60048036038101906101859190610de0565b610365565b005b6101a660048036038101906101a19190610efd565b610402565b6040516101b39190610e60565b60405180910390f35b6101c4610447565b6040516101d19190610f37565b60405180910390f35b6101e261046c565b6040516101ef9190610d2f565b60405180910390f35b610212600480360381019061020d9190610de0565b6104fc565b005b61022e60048036038101906102299190610de0565b610599565b60405161023b9190610e38565b60405180910390f35b61025e60048036038101906102599190610f50565b6105bb565b60405161026b9190610e60565b60405180910390f35b60606003805461028390610fbb565b80601f01602080910402602001604051908101604052809291908181526020018280546102af90610fbb565b80156102fa5780601f106102d1576101008083540402835291602001916102fa565b820191905f5260205f20905b8154815290600101906020018083116102dd57829003601f168201915b5050505050905090565b5f5f61030e61063d565b905061031b818585610644565b600191505092915050565b5f600254905090565b5f5f61033961063d565b9050610346858285610656565b6103518585856106e9565b60019150509392505050565b5f6012905090565b60055f9054906101000a900473ffffffffffffffffffffffffffffffffffffffff1673ffffffffffffffffffffffffffffffffffffffff163373ffffffffffffffffffffffffffffffffffffffff16146103f4576040517f08c379a00000000000000000000000000000000000000000000000000000000081526004016103eb90611035565b60405180910390fd5b6103fe82826107d9565b5050565b5f5f5f8373ffffffffffffffffffffffffffffffffffffffff1673ffffffffffffffffffffffffffffffffffffffff1681526020019081526020015f20549050919050565b60055f9054906101000a900473ffffffffffffffffffffffffffffffffffffffff1681565b60606004805461047b90610fbb565b80601f01602080910402602001604051908101604052809291908181526020018280546104a790610fbb565b80156104f25780601f106104c9576101008083540402835291602001916104f2565b820191905f5260205f20905b8154815290600101906020018083116104d557829003601f168201915b5050505050905090565b60055f9054906101000a900473ffffffffffffffffffffffffffffffffffffffff1673ffffffffffffffffffffffffffffffffffffffff163373ffffffffffffffffffffffffffffffffffffffff161461058b576040517f08c379a000000000000000000000000000000000000000000000000000000000815260040161058290611035565b60405180910390fd5b6105958282610858565b5050565b5f5f6105a361063d565b90506105b08185856106e9565b600191505092915050565b5f60015f8473ffffffffffffffffffffffffffffffffffffffff1673ffffffffffffffffffffffffffffffffffffffff1681526020019081526020015f205f8373ffffffffffffffffffffffffffffffffffffffff1673ffffffffffffffffffffffffffffffffffffffff1681526020019081526020015f2054905092915050565b5f33905090565b61065183838360016108d7565b505050565b5f61066184846105bb565b90507fffffffffffffffffffffffffffffffffffffffffffffffffffffffffffffffff8110156106e357818110156106d4578281836040517ffb8f41b20000000000000000000000000000000000000000000000000000000081526004016106cb93929190611053565b60405180910390fd5b6106e284848484035f6108d7565b5b50505050565b5f73ffffffffffffffffffffffffffffffffffffffff168373ffffffffffffffffffffffffffffffffffffffff1603610759575f6040517f96c6fd1e0000000000000000000000000000000000000000000000000000000081526004016107509190610f37565b60405180910390fd5b5f73ffffffffffffffffffffffffffffffffffffffff168273ffffffffffffffffffffffffffffffffffffffff16036107c9575f6040517fec442f050000000000000000000000000000000000000000000000000000000081526004016107c09190610f37565b60405180910390fd5b6107d4838383610aa6565b505050565b5f73ffffffffffffffffffffffffffffffffffffffff168273ffffffffffffffffffffffffffffffffffffffff1603610849575f6040517fec442f050000000000000000000000000000000000000000000000000000000081526004016108409190610f37565b60405180910390fd5b6108545f8383610aa6565b5050565b5f73ffffffffffffffffffffffffffffffffffffffff168273ffffffffffffffffffffffffffffffffffffffff16036108c8575f6040517f96c6fd1e0000000000000000000000000000000000000000000000000000000081526004016108bf9190610f37565b60405180910390fd5b6108d3825f83610aa6565b5050565b5f73ffffffffffffffffffffffffffffffffffffffff168473ffffffffffffffffffffffffffffffffffffffff1603610947575f6040517fe602df0500000000000000000000000000000000000000000000000000000000815260040161093e9190610f37565b60405180910390fd5b5f73ffffffffffffffffffffffffffffffffffffffff168373ffffffffffffffffffffffffffffffffffffffff16036109b7575f6040517f94280d620000000000000000000000000000000000000000000000000000000081526004016109ae9190610f37565b60405180910390fd5b8160015f8673ffffffffffffffffffffffffffffffffffffffff1673ffffffffffffffffffffffffffffffffffffffff1681526020019081526020015f205f8573ffffffffffffffffffffffffffffffffffffffff1673ffffffffffffffffffffffffffffffffffffffff1681526020019081526020015f20819055508015610aa0578273ffffffffffffffffffffffffffffffffffffffff168473ffffffffffffffffffffffffffffffffffffffff167f8c5be1e5ebec7d5bd14f71427d1e84f3dd0314c0f7b2291e5b200ac8c7c3b92584604051610a979190610e60565b60405180910390a35b50505050565b5f73ffffffffffffffffffffffffffffffffffffffff168373ffffffffffffffffffffffffffffffffffffffff1603610af6578060025f828254610aea91906110b5565b92505081905550610bc4565b5f5f5f8573ffffffffffffffffffffffffffffffffffffffff1673ffffffffffffffffffffffffffffffffffffffff1681526020019081526020015f2054905081811015610b7f578381836040517fe450d38c000000000000000000000000000000000000000000000000000000008152600401610b7693929190611053565b60405180910390fd5b8181035f5f8673ffffffffffffffffffffffffffffffffffffffff1673ffffffffffffffffffffffffffffffffffffffff1681526020019081526020015f2081905550505b5f73ffffffffffffffffffffffffffffffffffffffff168273ffffffffffffffffffffffffffffffffffffffff1603610c0b578060025f8282540392505081905550610c55565b805f5f8473ffffffffffffffffffffffffffffffffffffffff1673ffffffffffffffffffffffffffffffffffffffff1681526020019081526020015f205f82825401925050819055505b8173ffffffffffffffffffffffffffffffffffffffff168373ffffffffffffffffffffffffffffffffffffffff167fddf252ad1be2c89b69c2b068fc378daa952ba7f163c4a11628f55a4df523b3ef83604051610cb29190610e60565b60405180910390a3505050565b5f81519050919050565b5f82825260208201905092915050565b8281835e5f83830152505050565b5f601f19601f8301169050919050565b5f610d0182610cbf565b610d0b8185610cc9565b9350610d1b818560208601610cd9565b610d2481610ce7565b840191505092915050565b5f6020820190508181035f830152610d478184610cf7565b905092915050565b5f5ffd5b5f73ffffffffffffffffffffffffffffffffffffffff82169050919050565b5f610d7c82610d53565b9050919050565b610d8c81610d72565b8114610d96575f5ffd5b50565b5f81359050610da781610d83565b92915050565b5f819050919050565b610dbf81610dad565b8114610dc9575f5ffd5b50565b5f81359050610dda81610db6565b92915050565b5f5f60408385031215610df657610df5610d4f565b5b5f610e0385828601610d99565b9250506020610e1485828601610dcc565b9150509250929050565b5f8115159050919050565b610e3281610e1e565b82525050565b5f602082019050610e4b5f830184610e29565b92915050565b610e5a81610dad565b82525050565b5f602082019050610e735f830184610e51565b92915050565b5f5f5f60608486031215610e9057610e8f610d4f565b5b5f610e9d86828701610d99565b9350506020610eae86828701610d99565b9250506040610ebf86828701610dcc565b9150509250925092565b5f60ff82169050919050565b610ede81610ec9565b82525050565b5f602082019050610ef75f830184610ed5565b92915050565b5f60208284031215610f1257610f11610d4f565b5b5f610f1f84828501610d99565b91505092915050565b610f3181610d72565b82525050565b5f602082019050610f4a5f830184610f28565b92915050565b5f5f60408385031215610f6657610f65610d4f565b5b5f610f7385828601610d99565b9250506020610f8485828601610d99565b9150509250929050565b7f4e487b71000000000000000000000000000000000000000000000000000000005f52602260045260245ffd5b5f6002820490506001821680610fd257607f821691505b602082108103610fe557610fe4610f8e565b5b50919050565b7f4f6e6c79206f776e6572000000000000000000000000000000000000000000005f82015250565b5f61101f600a83610cc9565b915061102a82610feb565b602082019050919050565b5f6020820190508181035f83015261104c81611013565b9050919050565b5f6060820190506110665f830186610f28565b6110736020830185610e51565b6110806040830184610e51565b949350505050565b7f4e487b71000000000000000000000000000000000000000000000000000000005f52601160045260245ffd5b5f6110bf82610dad565b91506110ca83610dad565b92508282019050808211156110e2576110e1611088565b5b9291505056fea26469706673582212207cd7d00a7a26a18aa6874f5443c20ed5443fe252689db400b2463b502d919d4564736f6c63430008210033","linkReferences":{}},"methodIdentifiers":{"FEE_DENOMINATOR()":"d73792a9","FEE_NUMERATOR()":"41cd47bf","addLiquidity(uint256,uint256)":"9cd441da","getAmountOut(uint256,address)":"f140a35a","lpToken()":"5fcbd285","removeLiquidity(uint256)":"9c8f9f23","reserveA()":"dc5fa6c5","reserveB()":"19e36f3b","swap(uint256,address,address,uint256)":"70085be0","tokenA()":"0fc63d10","tokenB()":"5f64b55b"},"id":31}